:020000020000FC
:10110000200000000000004349434C4F20444500AC
:1011100054524142414C484F3A0025202000313280
:10112000330034353600373839002A302300314057
:10113000000A3C4000023D401200B0125A1AB012A0
:101140006219B012B01AF2D010003600F2D01000BE
:1011500035000F123F415F4228004F4F3FF007001C
:101160001E420C020E5E0EDF3ED000FE824E0C02CE
:10117000F2B0070028000824C2430E025E42280095
:101180007EF00700C24E0F02F2C010003500F2C020
:1011900010003600F2D020003600F2D020003500DA
:1011A0000F123F415F4228004F4F3FF007003FD0F2
:1011B00000FE82DF0C02F2B0070028000824D243B0
:1011C0000E025E4228007EF00700C24E0F02F2C0FF
:1011D00020003500F2C020003600F2D0400036007A
:1011E000F2D0400035000F123F415F4228004F4FC0
:1011F0003FF007003FD000FE82DF0C02F2B0070094
:1012000028000824E2430E025E4228007EF0070018
:10121000C24E0F02F2C040003500F2C0400036005E
:10122000F2D080003600F2D0800035000F123F412E
:101230005F4228004F4F3FF007003FD000FE82DFA3
:101240000C02F2B0070028000924F24003000E024D
:101250005E4228007EF00700C24E0F02F2C08000FE
:101260003500F2C080003600B29000FF0C021D2055
:10127000C29310020324D24311023041D243100220
:101280005E420F025E8305245E8306246E8307247C
:10129000093CE2430F023041D2430F023041C243C6
:1012A0000F023041F24003000F023041F2D08000C3
:1012B0001A00F2D040001A00F2D010003200F2D032
:1012C00020003200F2D040003200F2D08000320024
:1012D000F2C080001900F2D040001900F2C0800076
:1012E0003100F2C040003100F2D020003100F2D0D5
:1012F000100031003F4081063F53FE2F3F408106E2
:101300003F53FE2F3F4081063F53FE2FF2C0400067
:101310001900003C3F404B013F53FE2FF2D04000EC
:101320001900003C3F404B013F53FE2F3F408106D8
:101330003F53FE2FF2C040001900003C3F404B01DC
:101340003F53FE2FF2D040001900003C3F404B01BC
:101350003F53FE2F3F4081063F53FE2FF2C0400017
:101360001900003C3F404B013F53FE2FF2D040009C
:101370001900003C3F404B013F53FE2FF2C080005C
:101380003100F2C040003100F2D020003100F2C044
:1013900010003100F2C040001900003C3F404B01FA
:1013A0003F53FE2FF2D040001900003C3F404B015C
:1013B0003F53FE2F7C402800B012D2137C40060021
:1013C000B012D2137C400E00B012D2135C433040F6
:1013D000D213F2C080001900F2D0400019007CB096
:1013E00010000428F2D010003100033CF2C01000BD
:1013F00031007CB020000428F2D020003100033CF2
:10140000F2C0200031007CB040000428F2D040003F
:101410003100033CF2C0400031004C930434F2D060
:1014200080003100033CF2C080003100F2C0400077
:101430001900003C3F404B013F53FE2FF2D04000CB
:101440001900003C3F404B013F53FE2F5CB3042882
:10145000F2D010003100033CF2C0100031006CB338
:101460000428F2D020003100033CF2C020003100FB
:101470006CB20428F2D040003100033CF2C04000BE
:1014800031007CB20428F2D080003100033CF2C06D
:1014900080003100F2C040001900003C3F404B0189
:1014A0003F53FE2FF2D040001900003C3F404B015B
:1014B0003F53FE2F5C9305246C9303247C90030020
:1014C0000520003C3F404B013F53FE2FF2D08000EF
:1014D00019003041F2D080001900F2D0400019000C
:1014E0007CB010000428F2D010003100033CF2C0A0
:1014F000100031007CB020000428F2D02000310020
:10150000033CF2C0200031007CB040000428F2D03F
:1015100040003100033CF2C0400031004C930434E1
:10152000F2D080003100033CF2C080003100F2C0F4
:1015300040001900003C3F404B013F53FE2FF2D0CA
:1015400040001900003C3F404B013F53FE2F5CB36D
:101550000428F2D010003100033CF2C0100031002A
:101560006CB30428F2D020003100033CF2C020000C
:1015700031006CB20428F2D040003100033CF2C0CC
:10158000400031007CB20428F2D080003100033CDE
:10159000F2C080003100F2C040001900003C3F4022
:1015A0004B013F53FE2FF2D040001900003C3F405A
:1015B0004B013F53FE2F3041F2C080001900F2D0A2
:1015C00040001900F2D0800031007CB010000428E7
:1015D000F2D010003100033CF2C0100031007CB0AA
:1015E00020000428F2D020003100033CF2C020008B
:1015F00031007CB040000428F2D040003100033CB0
:10160000F2C040003100F2C040001900003C3F40F1
:101610004B013F53FE2FF2D040001900003C3F40E9
:101620004B013F53FE2F5CB30428F2D01000310071
:10163000033CF2C0100031006CB30428F2D020004B
:101640003100033CF2C0200031006CB20428F2D01B
:1016500040003100033CF2C0400031007CB204285D
:10166000F2D080003100033CF2C080003100F2C0B3
:1016700040001900003C3F404B013F53FE2FF2D089
:1016800040001900003C3F404B013F53FE2FF2D079
:10169000800019003041B012A01A4C4C824C00025C
:1016A000829300020524B0128C194C4C824C020229
:1016B0001F4202023F8031000B241F8311241F832D
:1016C00017242F831D242F8323241F832924304193
:1016D000B250F6FF7401B012CC17824302023041BF
:1016E000B240F4017401B012CC17824302023041BF
:1016F000B2500A007401B012CC178243020230418A
:10170000B240D6017401B012CC17824302023041BC
:10171000B2403A027401B012CC1782430202304147
:10172000B240D6017401B240C8000802B240320093
:101730000A02B2401000620132D20B3C82930802CE
:10174000FD23B2500A007401B240C8000802B2532F
:101750000A0282930A02F223B2C01000620132C26E
:10176000B012CC178243020230410A120B12081247
:1017700009120B4C084D0A4B0B9302343BE31B53ED
:1017800009430C4B3E400A00B012D6187E50300080
:101790000F480F59CF4E000019530C4B3E400A0022
:1017A000B012D6180B4C1B93EC370A9306340F4833
:1017B0000F59FF402D00000019530F480F59CF4318
:1017C00000000C48B01262183040861A1C427401A6
:1017D0003E400A00B012FA19824C06026D425C4388
:1017E000B01222183C400711B0122C1A7D400300A1
:1017F0006C43B01222183C401011B0122C1A7D40DC
:101800000D006C43B01222181C420602B0123819A7
:101810007D400F006C43B01222183C401A1130403A
:101820002C1A4E4C4C437D535E8307245E83082460
:101830005E830B245E830E24123C4C4D3040B81561
:101840007D5040004C4D3040B8157D5014004C4D3B
:101850003040B8157D5054004C4D3040B8154C43C5
:1018600030410A120B120A4C0B430C4AB0126C1A8C
:101870003C530F3C0F4A0F5B6E4F0D4A0D5C0F4AF5
:101880000F5BEF4D00000F4A0F5CCF4E00001B5363
:101890003C530B9CEF3B3B413A413041A2D26001AB
:1018A000B2D080026001B240E7037201B240F4019D
:1018B0000402B240E7037201B240F30174019242A4
:1018C00004027401B240E0006401B2D01000600173
:1018D00030418C118E11091209430E9303343EE3FB
:1018E0001E5319D30C9303343CE31C5339E3B01259
:1018F000FA1919B302243CE31C5329B302243EE332
:101900001E5339413041F2C080005700003C3F4037
:101910004B013F53FE2F073CE2C30200003C3F4017
:101920004B013F53FE2F5E42020012C34E105EB3C6
:10193000F323F2D25800304131820F4C0C410C534A
:101940003E4000113D400700B012901A0D410D536A
:101950000C4FB0126A170C410C53B0122C1A3152B2
:101960003041B240805A2001B0120619B0129C18C2
:10197000B012CC17B012AC12B012D419E2D22200BD
:10198000E2D2260032D2B0129616FD3FC293100268
:101990000E24C24310025E420E024E4E0E5E0E5EDA
:1019A0005F420F024F4F0E5F5C4E1E1130414C43A1
:1019B000304182439001B24040028001B24088131E
:1019C000920192C38201B2D010008201B2D0100005
:1019D00080013041F2F00F003600F2F0F8002A00EA
:1019E000B012B219C2430F02C2430E02C243110227
:1019F000C243100230417CF37EF30F4E0D4C0E4378
:101A00001C430D5D0E6E0E9F01280E8F0C6CF92B82
:101A100030410D120C120F120E1292C38201B0123D
:101A200046113E413F413C413D4100130A120A4CE0
:101A3000043C6C4AB012D4141A53CA930000F92320
:101A40003A4130410A1221830A4C814A00000D417B
:101A50000D535C43B012B41AF83F0F4C0F5D033CBA
:101A6000CC4300001C530C9FFB2330410F4C013C26
:101A70001F53CF930000FC230F8C0C4F3041354196
:101A8000344137413641394138413B413A41304197
:101A90000C12FC4E00001C531D83FB233C413041C3
:101AA0005C4210023041B253080200133040441A25
:061AB0003040AC1A304189
:02FFEC00A61A53
:02FFFA00121AD9
:02FFFE002E11C2
:040000030000112EBA
:00000001FF
